{
  "_format": "hh-sol-artifact-1",
  "contractName": "NFTCryptoAstro",
  "sourceName": "contracts/NFTCryptoAstro.sol",
  "abi": [
    {
      "inputs": [
        {
          "internalType": "bytes32",
          "name": "_merkleRoot",
          "type": "bytes32"
        },
        {
          "internalType": "string",
          "name": "_baseURI",
          "type": "string"
        }
      ],
      "stateMutability": "nonpayable",
      "type": "constructor"
    },
    {
      "inputs": [],
      "name": "ApprovalCallerNotOwnerNorApproved",
      "type": "error"
    },
    {
      "inputs": [],
      "name": "ApprovalQueryForNonexistentToken",
      "type": "error"
    },
    {
      "inputs": [],
      "name": "BalanceQueryForZeroAddress",
      "type": "error"
    },
    {
      "inputs": [],
      "name": "InvalidQueryRange",
      "type": "error"
    },
    {
      "inputs": [],
      "name": "MintERC2309QuantityExceedsLimit",
      "type": "error"
    },
    {
      "inputs": [],
      "name": "MintToZeroAddress",
      "type": "error"
    },
    {
      "inputs": [],
      "name": "MintZeroQuantity",
      "type": "error"
    },
    {
      "inputs": [],
      "name": "OwnerQueryForNonexistentToken",
      "type": "error"
    },
    {
      "inputs": [],
      "name": "OwnershipNotInitializedForExtraData",
      "type": "error"
    },
    {
      "inputs": [],
      "name": "TransferCallerNotOwnerNorApproved",
      "type": "error"
    },
    {
      "inputs": [],
      "name": "TransferFromIncorrectOwner",
      "type": "error"
    },
    {
      "inputs": [],
      "name": "TransferToNonERC721ReceiverImplementer",
      "type": "error"
    },
    {
      "inputs": [],
      "name": "TransferToZeroAddress",
      "type": "error"
    },
    {
      "inputs": [],
      "name": "URIQueryForNonexistentToken",
      "type": "error"
    },
    {
      "anonymous": false,
      "inputs": [
        {
          "indexed": true,
          "internalType": "address",
          "name": "owner",
          "type": "address"
        },
        {
          "indexed": true,
          "internalType": "address",
          "name": "approved",
          "type": "address"
        },
        {
          "indexed": true,
          "internalType": "uint256",
          "name": "tokenId",
          "type": "uint256"
        }
      ],
      "name": "Approval",
      "type": "event"
    },
    {
      "anonymous": false,
      "inputs": [
        {
          "indexed": true,
          "internalType": "address",
          "name": "owner",
          "type": "address"
        },
        {
          "indexed": true,
          "internalType": "address",
          "name": "operator",
          "type": "address"
        },
        {
          "indexed": false,
          "internalType": "bool",
          "name": "approved",
          "type": "bool"
        }
      ],
      "name": "ApprovalForAll",
      "type": "event"
    },
    {
      "anonymous": false,
      "inputs": [
        {
          "indexed": true,
          "internalType": "uint256",
          "name": "fromTokenId",
          "type": "uint256"
        },
        {
          "indexed": false,
          "internalType": "uint256",
          "name": "toTokenId",
          "type": "uint256"
        },
        {
          "indexed": true,
          "internalType": "address",
          "name": "from",
          "type": "address"
        },
        {
          "indexed": true,
          "internalType": "address",
          "name": "to",
          "type": "address"
        }
      ],
      "name": "ConsecutiveTransfer",
      "type": "event"
    },
    {
      "anonymous": false,
      "inputs": [
        {
          "indexed": true,
          "internalType": "contract IERC20",
          "name": "token",
          "type": "address"
        },
        {
          "indexed": false,
          "internalType": "address",
          "name": "to",
          "type": "address"
        },
        {
          "indexed": false,
          "internalType": "uint256",
          "name": "amount",
          "type": "uint256"
        }
      ],
      "name": "ERC20PaymentReleased",
      "type": "event"
    },
    {
      "anonymous": false,
      "inputs": [
        {
          "indexed": true,
          "internalType": "address",
          "name": "previousOwner",
          "type": "address"
        },
        {
          "indexed": true,
          "internalType": "address",
          "name": "newOwner",
          "type": "address"
        }
      ],
      "name": "OwnershipTransferred",
      "type": "event"
    },
    {
      "anonymous": false,
      "inputs": [
        {
          "indexed": false,
          "internalType": "address",
          "name": "account",
          "type": "address"
        },
        {
          "indexed": false,
          "internalType": "uint256",
          "name": "shares",
          "type": "uint256"
        }
      ],
      "name": "PayeeAdded",
      "type": "event"
    },
    {
      "anonymous": false,
      "inputs": [
        {
          "indexed": false,
          "internalType": "address",
          "name": "from",
          "type": "address"
        },
        {
          "indexed": false,
          "internalType": "uint256",
          "name": "amount",
          "type": "uint256"
        }
      ],
      "name": "PaymentReceived",
      "type": "event"
    },
    {
      "anonymous": false,
      "inputs": [
        {
          "indexed": false,
          "internalType": "address",
          "name": "to",
          "type": "address"
        },
        {
          "indexed": false,
          "internalType": "uint256",
          "name": "amount",
          "type": "uint256"
        }
      ],
      "name": "PaymentReleased",
      "type": "event"
    },
    {
      "anonymous": false,
      "inputs": [
        {
          "indexed": true,
          "internalType": "address",
          "name": "from",
          "type": "address"
        },
        {
          "indexed": true,
          "internalType": "address",
          "name": "to",
          "type": "address"
        },
        {
          "indexed": true,
          "internalType": "uint256",
          "name": "tokenId",
          "type": "uint256"
        }
      ],
      "name": "Transfer",
      "type": "event"
    },
    {
      "inputs": [
        {
          "internalType": "address",
          "name": "to",
          "type": "address"
        },
        {
          "internalType": "uint256",
          "name": "tokenId",
          "type": "uint256"
        }
      ],
      "name": "approve",
      "outputs": [],
      "stateMutability": "payable",
      "type": "function"
    },
    {
      "inputs": [
        {
          "internalType": "address",
          "name": "owner",
          "type": "address"
        }
      ],
      "name": "balanceOf",
      "outputs": [
        {
          "internalType": "uint256",
          "name": "",
          "type": "uint256"
        }
      ],
      "stateMutability": "view",
      "type": "function"
    },
    {
      "inputs": [],
      "name": "baseURI",
      "outputs": [
        {
          "internalType": "string",
          "name": "",
          "type": "string"
        }
      ],
      "stateMutability": "view",
      "type": "function"
    },
    {
      "inputs": [
        {
          "internalType": "uint256",
          "name": "tokenId",
          "type": "uint256"
        }
      ],
      "name": "explicitOwnershipOf",
      "outputs": [
        {
          "components": [
            {
              "internalType": "address",
              "name": "addr",
              "type": "address"
            },
            {
              "internalType": "uint64",
              "name": "startTimestamp",
              "type": "uint64"
            },
            {
              "internalType": "bool",
              "name": "burned",
              "type": "bool"
            },
            {
              "internalType": "uint24",
              "name": "extraData",
              "type": "uint24"
            }
          ],
          "internalType": "struct IERC721A.TokenOwnership",
          "name": "ownership",
          "type": "tuple"
        }
      ],
      "stateMutability": "view",
      "type": "function"
    },
    {
      "inputs": [
        {
          "internalType": "uint256[]",
          "name": "tokenIds",
          "type": "uint256[]"
        }
      ],
      "name": "explicitOwnershipsOf",
      "outputs": [
        {
          "components": [
            {
              "internalType": "address",
              "name": "addr",
              "type": "address"
            },
            {
              "internalType": "uint64",
              "name": "startTimestamp",
              "type": "uint64"
            },
            {
              "internalType": "bool",
              "name": "burned",
              "type": "bool"
            },
            {
              "internalType": "uint24",
              "name": "extraData",
              "type": "uint24"
            }
          ],
          "internalType": "struct IERC721A.TokenOwnership[]",
          "name": "",
          "type": "tuple[]"
        }
      ],
      "stateMutability": "view",
      "type": "function"
    },
    {
      "inputs": [
        {
          "internalType": "uint256",
          "name": "tokenId",
          "type": "uint256"
        }
      ],
      "name": "getApproved",
      "outputs": [
        {
          "internalType": "address",
          "name": "",
          "type": "address"
        }
      ],
      "stateMutability": "view",
      "type": "function"
    },
    {
      "inputs": [],
      "name": "getStep",
      "outputs": [
        {
          "internalType": "enum NFTCryptoAstro.Step",
          "name": "actualStep",
          "type": "uint8"
        }
      ],
      "stateMutability": "view",
      "type": "function"
    },
    {
      "inputs": [
        {
          "internalType": "address",
          "name": "_to",
          "type": "address"
        },
        {
          "internalType": "uint256",
          "name": "_quantity",
          "type": "uint256"
        }
      ],
      "name": "gift",
      "outputs": [],
      "stateMutability": "nonpayable",
      "type": "function"
    },
    {
      "inputs": [
        {
          "internalType": "address",
          "name": "owner",
          "type": "address"
        },
        {
          "internalType": "address",
          "name": "operator",
          "type": "address"
        }
      ],
      "name": "isApprovedForAll",
      "outputs": [
        {
          "internalType": "bool",
          "name": "",
          "type": "bool"
        }
      ],
      "stateMutability": "view",
      "type": "function"
    },
    {
      "inputs": [],
      "name": "isPaused",
      "outputs": [
        {
          "internalType": "bool",
          "name": "",
          "type": "bool"
        }
      ],
      "stateMutability": "view",
      "type": "function"
    },
    {
      "inputs": [],
      "name": "merkleRoot",
      "outputs": [
        {
          "internalType": "bytes32",
          "name": "",
          "type": "bytes32"
        }
      ],
      "stateMutability": "view",
      "type": "function"
    },
    {
      "inputs": [],
      "name": "name",
      "outputs": [
        {
          "internalType": "string",
          "name": "",
          "type": "string"
        }
      ],
      "stateMutability": "view",
      "type": "function"
    },
    {
      "inputs": [],
      "name": "owner",
      "outputs": [
        {
          "internalType": "address",
          "name": "",
          "type": "address"
        }
      ],
      "stateMutability": "view",
      "type": "function"
    },
    {
      "inputs": [
        {
          "internalType": "uint256",
          "name": "tokenId",
          "type": "uint256"
        }
      ],
      "name": "ownerOf",
      "outputs": [
        {
          "internalType": "address",
          "name": "",
          "type": "address"
        }
      ],
      "stateMutability": "view",
      "type": "function"
    },
    {
      "inputs": [
        {
          "internalType": "uint256",
          "name": "index",
          "type": "uint256"
        }
      ],
      "name": "payee",
      "outputs": [
        {
          "internalType": "address",
          "name": "",
          "type": "address"
        }
      ],
      "stateMutability": "view",
      "type": "function"
    },
    {
      "inputs": [
        {
          "internalType": "address",
          "name": "_account",
          "type": "address"
        },
        {
          "internalType": "uint256",
          "name": "_quantity",
          "type": "uint256"
        }
      ],
      "name": "publicMint",
      "outputs": [],
      "stateMutability": "payable",
      "type": "function"
    },
    {
      "inputs": [
        {
          "internalType": "address",
          "name": "account",
          "type": "address"
        }
      ],
      "name": "releasable",
      "outputs": [
        {
          "internalType": "uint256",
          "name": "",
          "type": "uint256"
        }
      ],
      "stateMutability": "view",
      "type": "function"
    },
    {
      "inputs": [
        {
          "internalType": "contract IERC20",
          "name": "token",
          "type": "address"
        },
        {
          "internalType": "address",
          "name": "account",
          "type": "address"
        }
      ],
      "name": "releasable",
      "outputs": [
        {
          "internalType": "uint256",
          "name": "",
          "type": "uint256"
        }
      ],
      "stateMutability": "view",
      "type": "function"
    },
    {
      "inputs": [
        {
          "internalType": "address payable",
          "name": "account",
          "type": "address"
        }
      ],
      "name": "release",
      "outputs": [],
      "stateMutability": "nonpayable",
      "type": "function"
    },
    {
      "inputs": [
        {
          "internalType": "contract IERC20",
          "name": "token",
          "type": "address"
        },
        {
          "internalType": "address",
          "name": "account",
          "type": "address"
        }
      ],
      "name": "release",
      "outputs": [],
      "stateMutability": "nonpayable",
      "type": "function"
    },
    {
      "inputs": [],
      "name": "releaseAll",
      "outputs": [],
      "stateMutability": "nonpayable",
      "type": "function"
    },
    {
      "inputs": [
        {
          "internalType": "contract IERC20",
          "name": "token",
          "type": "address"
        },
        {
          "internalType": "address",
          "name": "account",
          "type": "address"
        }
      ],
      "name": "released",
      "outputs": [
        {
          "internalType": "uint256",
          "name": "",
          "type": "uint256"
        }
      ],
      "stateMutability": "view",
      "type": "function"
    },
    {
      "inputs": [
        {
          "internalType": "address",
          "name": "account",
          "type": "address"
        }
      ],
      "name": "released",
      "outputs": [
        {
          "internalType": "uint256",
          "name": "",
          "type": "uint256"
        }
      ],
      "stateMutability": "view",
      "type": "function"
    },
    {
      "inputs": [],
      "name": "renounceOwnership",
      "outputs": [],
      "stateMutability": "nonpayable",
      "type": "function"
    },
    {
      "inputs": [
        {
          "internalType": "address",
          "name": "from",
          "type": "address"
        },
        {
          "internalType": "address",
          "name": "to",
          "type": "address"
        },
        {
          "internalType": "uint256",
          "name": "tokenId",
          "type": "uint256"
        }
      ],
      "name": "safeTransferFrom",
      "outputs": [],
      "stateMutability": "payable",
      "type": "function"
    },
    {
      "inputs": [
        {
          "internalType": "address",
          "name": "from",
          "type": "address"
        },
        {
          "internalType": "address",
          "name": "to",
          "type": "address"
        },
        {
          "internalType": "uint256",
          "name": "tokenId",
          "type": "uint256"
        },
        {
          "internalType": "bytes",
          "name": "_data",
          "type": "bytes"
        }
      ],
      "name": "safeTransferFrom",
      "outputs": [],
      "stateMutability": "payable",
      "type": "function"
    },
    {
      "inputs": [],
      "name": "saleStartTime",
      "outputs": [
        {
          "internalType": "uint256",
          "name": "",
          "type": "uint256"
        }
      ],
      "stateMutability": "view",
      "type": "function"
    },
    {
      "inputs": [
        {
          "internalType": "address",
          "name": "operator",
          "type": "address"
        },
        {
          "internalType": "bool",
          "name": "approved",
          "type": "bool"
        }
      ],
      "name": "setApprovalForAll",
      "outputs": [],
      "stateMutability": "nonpayable",
      "type": "function"
    },
    {
      "inputs": [
        {
          "internalType": "string",
          "name": "_baseURI",
          "type": "string"
        }
      ],
      "name": "setBaseURI",
      "outputs": [],
      "stateMutability": "nonpayable",
      "type": "function"
    },
    {
      "inputs": [
        {
          "internalType": "bytes32",
          "name": "_merkleRoot",
          "type": "bytes32"
        }
      ],
      "name": "setMerkleRoot",
      "outputs": [],
      "stateMutability": "nonpayable",
      "type": "function"
    },
    {
      "inputs": [
        {
          "internalType": "bool",
          "name": "_ispaused",
          "type": "bool"
        }
      ],
      "name": "setPause",
      "outputs": [],
      "stateMutability": "nonpayable",
      "type": "function"
    },
    {
      "inputs": [
        {
          "internalType": "uint256",
          "name": "_saleStartTime",
          "type": "uint256"
        }
      ],
      "name": "setSaleStartTime",
      "outputs": [],
      "stateMutability": "nonpayable",
      "type": "function"
    },
    {
      "inputs": [
        {
          "internalType": "address",
          "name": "account",
          "type": "address"
        }
      ],
      "name": "shares",
      "outputs": [
        {
          "internalType": "uint256",
          "name": "",
          "type": "uint256"
        }
      ],
      "stateMutability": "view",
      "type": "function"
    },
    {
      "inputs": [],
      "name": "step",
      "outputs": [
        {
          "internalType": "enum NFTCryptoAstro.Step",
          "name": "",
          "type": "uint8"
        }
      ],
      "stateMutability": "view",
      "type": "function"
    },
    {
      "inputs": [
        {
          "internalType": "bytes4",
          "name": "interfaceId",
          "type": "bytes4"
        }
      ],
      "name": "supportsInterface",
      "outputs": [
        {
          "internalType": "bool",
          "name": "",
          "type": "bool"
        }
      ],
      "stateMutability": "view",
      "type": "function"
    },
    {
      "inputs": [],
      "name": "symbol",
      "outputs": [
        {
          "internalType": "string",
          "name": "",
          "type": "string"
        }
      ],
      "stateMutability": "view",
      "type": "function"
    },
    {
      "inputs": [
        {
          "internalType": "uint256",
          "name": "_tokenId",
          "type": "uint256"
        }
      ],
      "name": "tokenURI",
      "outputs": [
        {
          "internalType": "string",
          "name": "",
          "type": "string"
        }
      ],
      "stateMutability": "view",
      "type": "function"
    },
    {
      "inputs": [
        {
          "internalType": "address",
          "name": "owner",
          "type": "address"
        }
      ],
      "name": "tokensOfOwner",
      "outputs": [
        {
          "internalType": "uint256[]",
          "name": "",
          "type": "uint256[]"
        }
      ],
      "stateMutability": "view",
      "type": "function"
    },
    {
      "inputs": [
        {
          "internalType": "address",
          "name": "owner",
          "type": "address"
        },
        {
          "internalType": "uint256",
          "name": "start",
          "type": "uint256"
        },
        {
          "internalType": "uint256",
          "name": "stop",
          "type": "uint256"
        }
      ],
      "name": "tokensOfOwnerIn",
      "outputs": [
        {
          "internalType": "uint256[]",
          "name": "",
          "type": "uint256[]"
        }
      ],
      "stateMutability": "view",
      "type": "function"
    },
    {
      "inputs": [
        {
          "internalType": "contract IERC20",
          "name": "token",
          "type": "address"
        }
      ],
      "name": "totalReleased",
      "outputs": [
        {
          "internalType": "uint256",
          "name": "",
          "type": "uint256"
        }
      ],
      "stateMutability": "view",
      "type": "function"
    },
    {
      "inputs": [],
      "name": "totalReleased",
      "outputs": [
        {
          "internalType": "uint256",
          "name": "",
          "type": "uint256"
        }
      ],
      "stateMutability": "view",
      "type": "function"
    },
    {
      "inputs": [],
      "name": "totalShares",
      "outputs": [
        {
          "internalType": "uint256",
          "name": "",
          "type": "uint256"
        }
      ],
      "stateMutability": "view",
      "type": "function"
    },
    {
      "inputs": [],
      "name": "totalSupply",
      "outputs": [
        {
          "internalType": "uint256",
          "name": "",
          "type": "uint256"
        }
      ],
      "stateMutability": "view",
      "type": "function"
    },
    {
      "inputs": [
        {
          "internalType": "address",
          "name": "from",
          "type": "address"
        },
        {
          "internalType": "address",
          "name": "to",
          "type": "address"
        },
        {
          "internalType": "uint256",
          "name": "tokenId",
          "type": "uint256"
        }
      ],
      "name": "transferFrom",
      "outputs": [],
      "stateMutability": "payable",
      "type": "function"
    },
    {
      "inputs": [
        {
          "internalType": "address",
          "name": "newOwner",
          "type": "address"
        }
      ],
      "name": "transferOwnership",
      "outputs": [],
      "stateMutability": "nonpayable",
      "type": "function"
    },
    {
      "inputs": [
        {
          "internalType": "address",
          "name": "_account",
          "type": "address"
        },
        {
          "internalType": "uint256",
          "name": "_quantity",
          "type": "uint256"
        },
        {
          "internalType": "bytes32[]",
          "name": "_proof",
          "type": "bytes32[]"
        }
      ],
      "name": "whiteListMint",
      "outputs": [],
      "stateMutability": "payable",
      "type": "function"
    },
    {
      "stateMutability": "payable",
      "type": "receive"
    }
  ],
  "bytecode": "0x636436c7706011556017805460ff1916905560a060405273ecb86fef51e5c603d0514d904b79ab40158ba67a60809081526200004090601890600162000549565b5060408051602081019091526064815262000060906019906001620005b3565b503480156200006e57600080fd5b506040516200377a3803806200377a833981016040819052620000919162000623565b6018805480602002602001604051908101604052809291908181526020018280548015620000e957602002820191906000526020600020905b81546001600160a01b03168152600190910190602001808311620000ca575b505050505060198054806020026020016040519081016040528092919081815260200182805480156200013c57602002820191906000526020600020905b81548152602001906001019080831162000127575b50505050506040518060400160405280600c81526020016b43727970746f20417374726f60a01b81525060405180604001604052806002815260200161434160f01b81525081600290816200019291906200079c565b506003620001a182826200079c565b50506000805550620001b33362000309565b8051825114620002255760405162461bcd60e51b815260206004820152603260248201527f5061796d656e7453706c69747465723a2070617965657320616e6420736861726044820152710cae640d8cadccee8d040dad2e6dac2e8c6d60731b60648201526084015b60405180910390fd5b6000825111620002785760405162461bcd60e51b815260206004820152601a60248201527f5061796d656e7453706c69747465723a206e6f2070617965657300000000000060448201526064016200021c565b60005b8251811015620002e457620002cf8382815181106200029e576200029e62000868565b6020026020010151838381518110620002bb57620002bb62000868565b60200260200101516200035b60201b60201c565b80620002db8162000894565b9150506200027b565b50505060128290556013620002fa82826200079c565b505060185460165550620008cb565b600880546001600160a01b038381166001600160a01b0319831681179093556040519116919082907f8be0079c531659141344cd1fd0a4f28419497f9722a3daafe3b4186f6b6457e090600090a35050565b6001600160a01b038216620003c85760405162461bcd60e51b815260206004820152602c60248201527f5061796d656e7453706c69747465723a206163636f756e74206973207468652060448201526b7a65726f206164647265737360a01b60648201526084016200021c565b600081116200041a5760405162461bcd60e51b815260206004820152601d60248201527f5061796d656e7453706c69747465723a2073686172657320617265203000000060448201526064016200021c565b6001600160a01b0382166000908152600b602052604090205415620004965760405162461bcd60e51b815260206004820152602b60248201527f5061796d656e7453706c69747465723a206163636f756e7420616c726561647960448201526a206861732073686172657360a81b60648201526084016200021c565b600d8054600181019091557fd7b6990105719101dabeb77144f2a3385c8033acd3af97e9423a695e81ad1eb50180546001600160a01b0319166001600160a01b0384169081179091556000908152600b6020526040902081905560095462000500908290620008b0565b600955604080516001600160a01b0384168152602081018390527f40c340f65e17194d14ddddb073d3c9f888e3cb52b5aae0c6c7706b4fbc905fac910160405180910390a15050565b828054828255906000526020600020908101928215620005a1579160200282015b82811115620005a157825182546001600160a01b0319166001600160a01b039091161782556020909201916001909101906200056a565b50620005af929150620005f6565b5090565b828054828255906000526020600020908101928215620005a1579160200282015b82811115620005a1578251829060ff16905591602001919060010190620005d4565b5b80821115620005af5760008155600101620005f7565b634e487b7160e01b600052604160045260246000fd5b600080604083850312156200063757600080fd5b8251602080850151919350906001600160401b03808211156200065957600080fd5b818601915086601f8301126200066e57600080fd5b8151818111156200068357620006836200060d565b604051601f8201601f19908116603f01168101908382118183101715620006ae57620006ae6200060d565b816040528281528986848701011115620006c757600080fd5b600093505b82841015620006eb5784840186015181850187015292850192620006cc565b82841115620006fd5760008684830101525b8096505050505050509250929050565b600181811c908216806200072257607f821691505b6020821081036200074357634e487b7160e01b600052602260045260246000fd5b50919050565b601f8211156200079757600081815260208120601f850160051c81016020861015620007725750805b601f850160051c820191505b8181101562000793578281556001016200077e565b5050505b505050565b81516001600160401b03811115620007b857620007b86200060d565b620007d081620007c984546200070d565b8462000749565b602080601f831160018114620008085760008415620007ef5750858301515b600019600386901b1c1916600185901b17855562000793565b600085815260208120601f198616915b82811015620008395788860151825594840194600190910190840162000818565b5085821015620008585787850151600019600388901b60f8161c191681555b5050505050600190811b01905550565b634e487b7160e01b600052603260045260246000fd5b634e487b7160e01b600052601160045260246000fd5b600060018201620008a957620008a96200087e565b5060010190565b60008219821115620008c657620008c66200087e565b500190565b612e9f80620008db6000396000f3fe6080604052600436106102815760003560e01c80638b83209b1161014f578063bedb86fb116100c1578063ce7c2ac21161007a578063ce7c2ac2146107c3578063d79779b2146107f9578063e25fe1751461082f578063e33b7de314610849578063e985e9c51461085e578063f2fde38b146108a757600080fd5b8063bedb86fb14610703578063c23dc68f14610723578063c45ac05014610750578063c87b56dd14610770578063cbce4c9714610790578063ce6df2b9146107b057600080fd5b80639b2654b2116101135780639b2654b2146106615780639e5288a014610674578063a22cb46514610696578063a3f8eace146106b6578063b187bd26146106d6578063b88d4fde146106f057600080fd5b80638b83209b146105b85780638da5cb5b146105d857806395d89b41146105f65780639852595c1461060b57806399a2557a1461064157600080fd5b806342842e0e116101f35780636352211e116101ac5780636352211e146105015780636c0360eb1461052157806370a0823114610536578063715018a6146105565780637cb647591461056b5780638462151c1461058b57600080fd5b806342842e0e1461044c57806348b750441461045f578063525f8a5c1461047f57806355f804b31461049f5780635bbb2177146104bf5780635be7fde8146104ec57600080fd5b8063191655871161024557806319165587146103925780631cbaee2d146103b257806323b872dd146103c85780632eb4a7ab146103db5780633a98ef39146103f1578063406072a91461040657600080fd5b806301ffc9a7146102cb57806306fdde0314610300578063081812fc14610322578063095ea7b31461035a57806318160ddd1461036f57600080fd5b366102c65760405162461bcd60e51b815260206004820152601060248201526f1bdb9b1e481a59881e5bdd481b5a5b9d60821b60448201526064015b60405180910390fd5b600080fd5b3480156102d757600080fd5b506102eb6102e63660046124df565b6108c7565b60405190151581526020015b60405180910390f35b34801561030c57600080fd5b50610315610919565b6040516102f79190612554565b34801561032e57600080fd5b5061034261033d366004612567565b6109ab565b6040516001600160a01b0390911681526020016102f7565b61036d610368366004612595565b6109e6565b005b34801561037b57600080fd5b50600154600054035b6040519081526020016102f7565b34801561039e57600080fd5b5061036d6103ad3660046125c1565b6109f6565b3480156103be57600080fd5b5061038460115481565b61036d6103d63660046125de565b610add565b3480156103e757600080fd5b5061038460125481565b3480156103fd57600080fd5b50600954610384565b34801561041257600080fd5b5061038461042136600461261f565b6001600160a01b039182166000908152600f6020908152604080832093909416825291909152205490565b61036d61045a3660046125de565b610c42565b34801561046b57600080fd5b5061036d61047a36600461261f565b610c62565b34801561048b57600080fd5b5061036d61049a366004612567565b610d73565b3480156104ab57600080fd5b5061036d6104ba3660046126e4565b610d80565b3480156104cb57600080fd5b506104df6104da366004612779565b610d94565b6040516102f791906127f8565b3480156104f857600080fd5b5061036d610de0565b34801561050d57600080fd5b5061034261051c366004612567565b610e0e565b34801561052d57600080fd5b50610315610e19565b34801561054257600080fd5b506103846105513660046125c1565b610ea7565b34801561056257600080fd5b5061036d610eed565b34801561057757600080fd5b5061036d610586366004612567565b610f01565b34801561059757600080fd5b506105ab6105a63660046125c1565b610f0e565b6040516102f7919061283a565b3480156105c457600080fd5b506103426105d3366004612567565b610f3d565b3480156105e457600080fd5b506008546001600160a01b0316610342565b34801561060257600080fd5b50610315610f6d565b34801561061757600080fd5b506103846106263660046125c1565b6001600160a01b03166000908152600c602052604090205490565b34801561064d57600080fd5b506105ab61065c366004612872565b610f7c565b61036d61066f3660046128a7565b610f89565b34801561068057600080fd5b506106896111b2565b6040516102f79190612919565b3480156106a257600080fd5b5061036d6106b136600461294f565b6112b4565b3480156106c257600080fd5b506103846106d13660046125c1565b611320565b3480156106e257600080fd5b506017546102eb9060ff1681565b61036d6106fe36600461297d565b611368565b34801561070f57600080fd5b5061036d61071e3660046129fd565b6113a3565b34801561072f57600080fd5b5061074361073e366004612567565b6113be565b6040516102f79190612a1a565b34801561075c57600080fd5b5061038461076b36600461261f565b611418565b34801561077c57600080fd5b5061031561078b366004612567565b6114db565b34801561079c57600080fd5b5061036d6107ab366004612595565b611575565b61036d6107be366004612595565b61164b565b3480156107cf57600080fd5b506103846107de3660046125c1565b6001600160a01b03166000908152600b602052604090205490565b34801561080557600080fd5b506103846108143660046125c1565b6001600160a01b03166000908152600e602052604090205490565b34801561083b57600080fd5b506010546106899060ff1681565b34801561085557600080fd5b50600a54610384565b34801561086a57600080fd5b506102eb61087936600461261f565b6001600160a01b03918216600090815260076020908152604080832093909416825291909152205460ff1690565b3480156108b357600080fd5b5061036d6108c23660046125c1565b611820565b60006301ffc9a760e01b6001600160e01b0319831614806108f857506380ac58cd60e01b6001600160e01b03198316145b806109135750635b5e139f60e01b6001600160e01b03198316145b92915050565b60606002805461092890612a28565b80601f016020809104026020016040519081016040528092919081815260200182805461095490612a28565b80156109a15780601f10610976576101008083540402835291602001916109a1565b820191906000526020600020905b81548152906001019060200180831161098457829003601f168201915b5050505050905090565b60006109b682611896565b6109ca576109ca6333d1c03960e21b6118d9565b506000908152600660205260409020546001600160a01b031690565b6109f2828260016118e3565b5050565b6001600160a01b0381166000908152600b6020526040902054610a2b5760405162461bcd60e51b81526004016102bd90612a62565b6000610a3682611320565b905080600003610a585760405162461bcd60e51b81526004016102bd90612aa8565b80600a6000828254610a6a9190612b09565b90915550506001600160a01b0382166000908152600c60205260409020805482019055610a978282611986565b604080516001600160a01b0384168152602081018390527fdf20fd1e76bc69d672e4814fafb2c449bba3a5369d8359adf9e05e6fde87b056910160405180910390a15050565b6000610ae882611a9f565b6001600160a01b039485169490915081168414610b0e57610b0e62a1148160e81b6118d9565b60008281526006602052604090208054338082146001600160a01b03881690911417610b5257610b3e8633610879565b610b5257610b52632ce44b5f60e11b6118d9565b8015610b5d57600082555b6001600160a01b038681166000908152600560205260408082208054600019019055918716808252919020805460010190554260a01b17600160e11b17600085815260046020526040812091909155600160e11b84169003610bef57600184016000818152600460205260408120549003610bed576000548114610bed5760008181526004602052604090208490555b505b6001600160a01b0385168481887fddf252ad1be2c89b69c2b068fc378daa952ba7f163c4a11628f55a4df523b3ef600080a480600003610c3957610c39633a954ecd60e21b6118d9565b50505050505050565b610c5d83838360405180602001604052806000815250611368565b505050565b6001600160a01b0381166000908152600b6020526040902054610c975760405162461bcd60e51b81526004016102bd90612a62565b6000610ca38383611418565b905080600003610cc55760405162461bcd60e51b81526004016102bd90612aa8565b6001600160a01b0383166000908152600e602052604081208054839290610ced908490612b09565b90915550506001600160a01b038084166000908152600f60209081526040808320938616835292905220805482019055610d28838383611b35565b604080516001600160a01b038481168252602082018490528516917f3be5b7a71e84ed12875d241991c70855ac5817d847039e17a9d895c1ceb0f18a910160405180910390a2505050565b610d7b611b87565b601155565b610d88611b87565b60136109f28282612b6f565b60408051828152600583901b8082016020019092526060915b8015610dd857601f1980820191860101356000610dc9826113be565b8484016020015250610dad9050565b509392505050565b60005b601654811015610e0b57610df96103ad82610f3d565b80610e0381612c2f565b915050610de3565b50565b600061091382611a9f565b60138054610e2690612a28565b80601f0160208091040260200160405190810160405280929190818152602001828054610e5290612a28565b8015610e9f5780601f10610e7457610100808354040283529160200191610e9f565b820191906000526020600020905b815481529060010190602001808311610e8257829003601f168201915b505050505081565b60006001600160a01b038216610ec757610ec76323d3ad8160e21b6118d9565b506001600160a01b031660009081526005602052604090205467ffffffffffffffff1690565b610ef5611b87565b610eff6000611be1565b565b610f09611b87565b601255565b6060600080610f1c60005490565b90506060818314610f3557610f32858484611c33565b90505b949350505050565b6000600d8281548110610f5257610f52612c48565b6000918252602090912001546001600160a01b031692915050565b60606003805461092890612a28565b6060610f35848484611c33565b60175460ff1615610fac5760405162461bcd60e51b81526004016102bd90612c5e565b6001610fb66111b2565b6005811115610fc757610fc7612903565b146110145760405162461bcd60e51b815260206004820152601c60248201527f57686974656c6973742073616c65206973206e6f74206163746976650000000060448201526064016102bd565b61101f848383611d24565b61106b5760405162461bcd60e51b815260206004820152601760248201527f596f7520617265206e6f742077686974656c697374656400000000000000000060448201526064016102bd565b33600090815260146020526040902054600190611089908590612b09565b11156110f15760405162461bcd60e51b815260206004820152603160248201527f596f752063616e206f6e6c79206d696e742031204e465420647572696e67207460448201527068652077686974656c6973742073616c6560781b60648201526084016102bd565b607d836111016001546000540390565b61110b9190612b09565b11156111295760405162461bcd60e51b81526004016102bd90612c8a565b61113a8366071afd498d0000612cb7565b34101561117d5760405162461bcd60e51b81526020600482015260116024820152704e6f7420656e6f756768742066756e647360781b60448201526064016102bd565b336000908152601460205260408120805485929061119c908490612b09565b909155506111ac90508484611d9c565b50505050565b60006011544210156111c45750600090565b60115442101580156111e357506011546111e09061a8c0612b09565b42105b156111ee5750600190565b6011546111fd9061a8c0612b09565b421015801561121a57506011546112179062015180612b09565b42105b156112255750600290565b6011546112359062015180612b09565b4210158015611252575060115461124f906202a300612b09565b42105b1561125d5750600390565b60115461126d906202a300612b09565b421015801561128a575060115461128790620bdd80612b09565b42105b156112955750600490565b6011546112a590620bdd80612b09565b42106112b15750600590565b90565b3360008181526007602090815260408083206001600160a01b03871680855290835292819020805460ff191686151590811790915590519081529192917f17307eab39ab6107e8899845ad3d59bd9653f200f220920489ca2b5937696c31910160405180910390a35050565b60008061132c600a5490565b6113369047612b09565b9050611361838261135c866001600160a01b03166000908152600c602052604090205490565b611db6565b9392505050565b611373848484610add565b6001600160a01b0383163b156111ac5761138f84848484611df4565b6111ac576111ac6368d2bf6b60e11b6118d9565b6113ab611b87565b6017805460ff1916911515919091179055565b60408051608081018252600080825260208201819052918101829052606081018290529054821015611413575b60008281526004602052604090205461140a57600019909101906113eb565b61091382611ed6565b919050565b6001600160a01b0382166000908152600e602052604081205481906040516370a0823160e01b81523060048201526001600160a01b038616906370a0823190602401602060405180830381865afa158015611477573d6000803e3d6000fd5b505050506040513d601f19601f8201168201806040525081019061149b9190612cd6565b6114a59190612b09565b6001600160a01b038086166000908152600f6020908152604080832093881683529290522054909150610f359084908390611db6565b60606114e682611896565b6115435760405162461bcd60e51b815260206004820152602860248201527f455243373231413a2055524920717565727920666f72206e6f6e657869737465604482015267373a103a37b5b2b760c11b60648201526084016102bd565b601361154e83611f55565b60405160200161155f929190612cef565b6040516020818303038152906040529050919050565b61157d611b87565b60175460ff16156115a05760405162461bcd60e51b81526004016102bd90612c5e565b60036115aa6111b2565b60058111156115bb576115bb612903565b116116085760405162461bcd60e51b815260206004820152601960248201527f47696674206973206166746572207075626c69632073616c650000000000000060448201526064016102bd565b6101f4816116196001546000540390565b6116239190612b09565b11156116415760405162461bcd60e51b81526004016102bd90612c8a565b6109f28282611d9c565b60175460ff161561166e5760405162461bcd60e51b81526004016102bd90612c5e565b60036116786111b2565b600581111561168957611689612903565b146116d65760405162461bcd60e51b815260206004820152601960248201527f5075626c69632073616c65206973206e6f74206163746976650000000000000060448201526064016102bd565b336000908152601560205260409020546003906116f4908390612b09565b111561175a5760405162461bcd60e51b815260206004820152602f60248201527f596f752063616e206f6e6c79206d696e742033204e46547320647572696e672060448201526e746865207075626c69632073616c6560881b60648201526084016102bd565b61176760056101f4612d86565b816117756001546000540390565b61177f9190612b09565b111561179d5760405162461bcd60e51b81526004016102bd90612c8a565b6117ae81660aa87bee538000612cb7565b3410156117f15760405162461bcd60e51b81526020600482015260116024820152704e6f7420656e6f756768742066756e647360781b60448201526064016102bd565b3360009081526015602052604081208054839290611810908490612b09565b909155506109f290508282611d9c565b611828611b87565b6001600160a01b03811661188d5760405162461bcd60e51b815260206004820152602660248201527f4f776e61626c653a206e6577206f776e657220697320746865207a65726f206160448201526564647265737360d01b60648201526084016102bd565b610e0b81611be1565b600080548210156114135760005b50600082815260046020526040812054908190036118cc576118c583612d9d565b92506118a4565b600160e01b161592915050565b8060005260046000fd5b60006118ee83610e0e565b90508180156119065750336001600160a01b03821614155b15611929576119158133610879565b611929576119296367d9dca160e11b6118d9565b60008381526006602052604080822080546001600160a01b0319166001600160a01b0388811691821790925591518693918516917f8c5be1e5ebec7d5bd14f71427d1e84f3dd0314c0f7b2291e5b200ac8c7c3b92591a450505050565b804710156119d65760405162461bcd60e51b815260206004820152601d60248201527f416464726573733a20696e73756666696369656e742062616c616e636500000060448201526064016102bd565b6000826001600160a01b03168260405160006040518083038185875af1925050503d8060008114611a23576040519150601f19603f3d011682016040523d82523d6000602084013e611a28565b606091505b5050905080610c5d5760405162461bcd60e51b815260206004820152603a60248201527f416464726573733a20756e61626c6520746f2073656e642076616c75652c207260448201527f6563697069656e74206d6179206861766520726576657274656400000000000060648201526084016102bd565b60008181526004602052604081205490819003611b12576000548210611acf57611acf636f96cda160e11b6118d9565b5b50600019016000818152600460205260409020548015611ad057600160e01b8116600003611afd57919050565b611b0d636f96cda160e11b6118d9565b611ad0565b600160e01b8116600003611b2557919050565b611413636f96cda160e11b6118d9565b604080516001600160a01b038416602482015260448082018490528251808303909101815260649091019091526020810180516001600160e01b031663a9059cbb60e01b179052610c5d908490611fe8565b6008546001600160a01b03163314610eff5760405162461bcd60e51b815260206004820181905260248201527f4f776e61626c653a2063616c6c6572206973206e6f7420746865206f776e657260448201526064016102bd565b600880546001600160a01b038381166001600160a01b0319831681179093556040519116919082907f8be0079c531659141344cd1fd0a4f28419497f9722a3daafe3b4186f6b6457e090600090a35050565b6060818310611c4c57611c4c631960ccad60e11b6118d9565b600054808310611c5a578092505b60606000611c6787610ea7565b85871090810291508115611d18578187870311611c845786860391505b60405192506001820160051b83016040526000611ca0886113be565b905060008160400151611cb1575080515b60005b611cbd8a611ed6565b9250604083015160008114611cd55760009250611cfa565b835115611ce157835192505b8b831860601b611cfa576001820191508a8260051b8801525b5060018a019950888a1480611d0e57508481145b15611cb457855250505b50909695505050505050565b6000610f35838380806020026020016040519081016040528093929190818152602001838360200280828437600092019190915250506012546040516bffffffffffffffffffffffff1960608b901b1660208201529092506034019050604051602081830303815290604052805190602001206120ba565b6109f28282604051806020016040528060008152506120d0565b6009546001600160a01b0384166000908152600b602052604081205490918391611de09086612cb7565b611dea9190612db4565b610f359190612d86565b604051630a85bd0160e11b81526000906001600160a01b0385169063150b7a0290611e29903390899088908890600401612dd6565b6020604051808303816000875af1925050508015611e64575060408051601f3d908101601f19168201909252611e6191810190612e13565b60015b611eb9573d808015611e92576040519150601f19603f3d011682016040523d82523d6000602084013e611e97565b606091505b508051600003611eb157611eb16368d2bf6b60e11b6118d9565b805181602001fd5b6001600160e01b031916630a85bd0160e11b149050949350505050565b60408051608081018252600080825260208201819052918101829052606081019190915260008281526004602052604090205461091390604080516080810182526001600160a01b038316815260a083901c67ffffffffffffffff166020820152600160e01b831615159181019190915260e89190911c606082015290565b60606000611f6283612139565b600101905060008167ffffffffffffffff811115611f8257611f82612658565b6040519080825280601f01601f191660200182016040528015611fac576020820181803683370190505b5090508181016020015b600019016f181899199a1a9b1b9c1cb0b131b232b360811b600a86061a8153600a8504945084611fb657509392505050565b600061203d826040518060400160405280602081526020017f5361666545524332303a206c6f772d6c6576656c2063616c6c206661696c6564815250856001600160a01b03166122119092919063ffffffff16565b805190915015610c5d578080602001905181019061205b9190612e30565b610c5d5760405162461bcd60e51b815260206004820152602a60248201527f5361666545524332303a204552433230206f7065726174696f6e20646964206e6044820152691bdd081cdd58d8d9595960b21b60648201526084016102bd565b6000826120c78584612220565b14949350505050565b6120da8383612265565b6001600160a01b0383163b15610c5d576000548281035b6121046000868380600101945086611df4565b612118576121186368d2bf6b60e11b6118d9565b8181106120f15781600054146121325761213260006118d9565b5050505050565b60008072184f03e93ff9f4daa797ed6e38ed64bf6a1f0160401b83106121785772184f03e93ff9f4daa797ed6e38ed64bf6a1f0160401b830492506040015b6d04ee2d6d415b85acef810000000083106121a4576d04ee2d6d415b85acef8100000000830492506020015b662386f26fc1000083106121c257662386f26fc10000830492506010015b6305f5e10083106121da576305f5e100830492506008015b61271083106121ee57612710830492506004015b60648310612200576064830492506002015b600a83106109135760010192915050565b6060610f358484600085612324565b600081815b8451811015610dd8576122518286838151811061224457612244612c48565b60200260200101516123ff565b91508061225d81612c2f565b915050612225565b60008054908290036122815761228163b562e8dd60e01b6118d9565b60008181526004602090815260408083206001600160a01b0387164260a01b6001881460e11b178117909155808452600590925282208054680100000000000000018602019055908190036122df576122df622e076360e81b6118d9565b818301825b808360007fddf252ad1be2c89b69c2b068fc378daa952ba7f163c4a11628f55a4df523b3ef600080a48181600101915081036122e4575060005550505050565b6060824710156123855760405162461bcd60e51b815260206004820152602660248201527f416464726573733a20696e73756666696369656e742062616c616e636520666f6044820152651c8818d85b1b60d21b60648201526084016102bd565b600080866001600160a01b031685876040516123a19190612e4d565b60006040518083038185875af1925050503d80600081146123de576040519150601f19603f3d011682016040523d82523d6000602084013e6123e3565b606091505b50915091506123f48783838761242b565b979650505050505050565b600081831061241b576000828152602084905260409020611361565b5060009182526020526040902090565b6060831561249a578251600003612493576001600160a01b0385163b6124935760405162461bcd60e51b815260206004820152601d60248201527f416464726573733a2063616c6c20746f206e6f6e2d636f6e747261637400000060448201526064016102bd565b5081610f35565b610f3583838151156124af5781518083602001fd5b8060405162461bcd60e51b81526004016102bd9190612554565b6001600160e01b031981168114610e0b57600080fd5b6000602082840312156124f157600080fd5b8135611361816124c9565b60005b838110156125175781810151838201526020016124ff565b838111156111ac5750506000910152565b600081518084526125408160208601602086016124fc565b601f01601f19169290920160200192915050565b6020815260006113616020830184612528565b60006020828403121561257957600080fd5b5035919050565b6001600160a01b0381168114610e0b57600080fd5b600080604083850312156125a857600080fd5b82356125b381612580565b946020939093013593505050565b6000602082840312156125d357600080fd5b813561136181612580565b6000806000606084860312156125f357600080fd5b83356125fe81612580565b9250602084013561260e81612580565b929592945050506040919091013590565b6000806040838503121561263257600080fd5b823561263d81612580565b9150602083013561264d81612580565b809150509250929050565b634e487b7160e01b600052604160045260246000fd5b600067ffffffffffffffff8084111561268957612689612658565b604051601f8501601f19908116603f011681019082821181831017156126b1576126b1612658565b816040528093508581528686860111156126ca57600080fd5b858560208301376000602087830101525050509392505050565b6000602082840312156126f657600080fd5b813567ffffffffffffffff81111561270d57600080fd5b8201601f8101841361271e57600080fd5b610f358482356020840161266e565b60008083601f84011261273f57600080fd5b50813567ffffffffffffffff81111561275757600080fd5b6020830191508360208260051b850101111561277257600080fd5b9250929050565b6000806020838503121561278c57600080fd5b823567ffffffffffffffff8111156127a357600080fd5b6127af8582860161272d565b90969095509350505050565b80516001600160a01b0316825260208082015167ffffffffffffffff169083015260408082015115159083015260609081015162ffffff16910152565b6020808252825182820181905260009190848201906040850190845b81811015611d18576128278385516127bb565b9284019260809290920191600101612814565b6020808252825182820181905260009190848201906040850190845b81811015611d1857835183529284019291840191600101612856565b60008060006060848603121561288757600080fd5b833561289281612580565b95602085013595506040909401359392505050565b600080600080606085870312156128bd57600080fd5b84356128c881612580565b935060208501359250604085013567ffffffffffffffff8111156128eb57600080fd5b6128f78782880161272d565b95989497509550505050565b634e487b7160e01b600052602160045260246000fd5b602081016006831061293b57634e487b7160e01b600052602160045260246000fd5b91905290565b8015158114610e0b57600080fd5b6000806040838503121561296257600080fd5b823561296d81612580565b9150602083013561264d81612941565b6000806000806080858703121561299357600080fd5b843561299e81612580565b935060208501356129ae81612580565b925060408501359150606085013567ffffffffffffffff8111156129d157600080fd5b8501601f810187136129e257600080fd5b6129f18782356020840161266e565b91505092959194509250565b600060208284031215612a0f57600080fd5b813561136181612941565b6080810161091382846127bb565b600181811c90821680612a3c57607f821691505b602082108103612a5c57634e487b7160e01b600052602260045260246000fd5b50919050565b60208082526026908201527f5061796d656e7453706c69747465723a206163636f756e7420686173206e6f2060408201526573686172657360d01b606082015260800190565b6020808252602b908201527f5061796d656e7453706c69747465723a206163636f756e74206973206e6f742060408201526a191d59481c185e5b595b9d60aa1b606082015260800190565b634e487b7160e01b600052601160045260246000fd5b60008219821115612b1c57612b1c612af3565b500190565b601f821115610c5d57600081815260208120601f850160051c81016020861015612b485750805b601f850160051c820191505b81811015612b6757828155600101612b54565b505050505050565b815167ffffffffffffffff811115612b8957612b89612658565b612b9d81612b978454612a28565b84612b21565b602080601f831160018114612bd25760008415612bba5750858301515b600019600386901b1c1916600185901b178555612b67565b600085815260208120601f198616915b82811015612c0157888601518255948401946001909101908401612be2565b5085821015612c1f5787850151600019600388901b60f8161c191681555b5050505050600190811b01905550565b600060018201612c4157612c41612af3565b5060010190565b634e487b7160e01b600052603260045260246000fd5b60208082526012908201527110dbdb9d1c9858dd081a5cc81c185d5cd95960721b604082015260600190565b602080825260139082015272135056081cdd5c1c1b1e48195e18d959591959606a1b604082015260600190565b6000816000190483118215151615612cd157612cd1612af3565b500290565b600060208284031215612ce857600080fd5b5051919050565b6000808454612cfd81612a28565b60018281168015612d155760018114612d2a57612d59565b60ff1984168752821515830287019450612d59565b8860005260208060002060005b85811015612d505781548a820152908401908201612d37565b50505082870194505b505050508351612d6d8183602088016124fc565b64173539b7b760d91b9101908152600501949350505050565b600082821015612d9857612d98612af3565b500390565b600081612dac57612dac612af3565b506000190190565b600082612dd157634e487b7160e01b600052601260045260246000fd5b500490565b6001600160a01b0385811682528416602082015260408101839052608060608201819052600090612e0990830184612528565b9695505050505050565b600060208284031215612e2557600080fd5b8151611361816124c9565b600060208284031215612e4257600080fd5b815161136181612941565b60008251612e5f8184602087016124fc565b919091019291505056fea2646970667358221220b27f639aafdb016b44134230c7056fdec3716c01bb94a26ba8f47f5f92ec4d4c64736f6c634300080f0033",
  "linkReferences": {},
  "deployedLinkReferences": {}
}